:020000040800F2
:10000000A00B00204D020008D91B0008C1170008F2
:100010008D180008350800080727000800000000B8
:100020000000000000000000000000005F02000867
:10003000AD1400080000000063020008650200081B
:1000400067020008670200086702000867020008EC
:1000500067020008670200086702000867020008DC
:1000600067020008670200086702000867020008CC
:1000700067020008670200086702000867020008BC
:10008000670200086702000867020008890A000882
:10009000610900086702000867020008670200089B
:1000A000670200086702000867020008670200088C
:1000B000670200086702000867020008670200087C
:1000C000670200086702000867020008670200086C
:1000D0006702000899250008670200086702000807
:1000E000670200086702000867020008670200084C
:1000F000670200086702000867020008670200083C
:10010000670200086702000867020008670200082B
:10011000670200086702000867020008670200081B
:10012000670200086702000867020008670200080B
:10013000670200086702000867020008250C000833
:10014000D90B000867020008670200086702000870
:1001500067020008670200086702000821260008FD
:1001600067020008670200086702000867020008CB
:10017000670200086702000867020008000000002C
:1001800067020008670200086702000867020008AB
:10019000670200086702000867020008670200089B
:1001A00000000000000000006702000800F002F8F4
:1001B00000F03CF80AA090E8000C82448344AAF1C5
:1001C0000107DA4501D100F031F8AFF2090EBAE8C3
:1001D0000F0013F0010F18BFFB1A43F0010318477B
:1001E0000C3400002C340000103A24BF78C878C1C9
:1001F000FAD8520724BF30C830C144BF04680C602D
:10020000704700000023002400250026103A28BF74
:1002100078C1FBD8520728BF30C148BF0B60704778
:100220001FB503F0DDF91FBD10B510BD00F0B6F825
:100230001146FFF7F5FF02F0D1FC00F0D4F803B44B
:10024000FFF7F2FF03BC02F0A4FA00000948804760
:1002500009480047FEE7FEE7FEE7FEE7FEE7FEE7A8
:10026000FEE7FEE7FEE7FEE704480549054A064BC0
:100270007047000089220008AD010008A005002099
:10028000A00B0020A0070020A0070020704710B599
:10029000203AC0F00B80B1E81850203AA0E818507E
:1002A000B1E81850A0E81850BFF4F5AF5FEA027C3F
:1002B00024BFB1E81850A0E8185044BF18C918C0AE
:1002C000BDE810405FEA827C24BF51F8043B40F84F
:1002D000043B08BF7047D20728BF31F8023B48BF34
:1002E00011F8012B28BF20F8023B48BF00F8012B72
:1002F000704702F0FF0343EA032242EA024200F0A1
:1003000002B84FF000020429C0F0128010F0030C74
:1003100000F01F80CCF1040CBCF1020F18BF00F8F4
:10032000012BA8BF20F8022BA1EB0C0100F011B8A3
:100330005FEAC17C24BF00F8012B00F8012B48BF05
:1003400000F8012B704770477047704770474FF0B7
:10035000000200B5134694469646203922BFA0E815
:100360000C50A0E80C50B1F12001BFF4F7AF090721
:1003700028BFA0E80C5048BF0CC05DF804EB890012
:1003800028BF40F8042B08BF704748BF20F8022B55
:1003900011F0804F18BF00F8012B7047754600F030
:1003A0002BF8AE4605006946534620F00700854607
:1003B00018B020B5FFF758FFBDE820404FF0000609
:1003C0004FF000074FF000084FF0000B21F007013D
:1003D000AC46ACE8C009ACE8C009ACE8C009ACE880
:1003E000C0098D46704710B50446AFF30080204623
:1003F000BDE81040FFF723BF004870473C050020D0
:1004000070B504460CB1012C16D18021164801F0BC
:100410008CF90546072102F0BBFB48B94FF40041B7
:10042000124801F082F905460A2102F0B1FB08B139
:10043000012070BD0020FCE708210D4801F075F98E
:100440000546012102F0A4FB48B94FF48051094848
:1004500001F06BF90546042102F09AFB08B1012076
:10046000E7E70020E5E7000000200240000C024022
:1004700000000240001C02402DE9FF4304460D46E7
:10048000904699460B9E002008EB8801AD4A02EB8E
:10049000810141F829004946404602F03DFA0746ED
:1004A00002F0D8FBC0E002F00DFB074602AA03A948
:1004B00002F037FA02F0C2FBDDE90210401C02F044
:1004C0004FFB38BB0398401C00EB80009D4901EBBB
:1004D0008000029950F82100401CD8B9039800EB25
:1004E0008000984901EB8000029950F82100401CDF
:1004F0000399491C01EB8101924A02EB8101029AA6
:1005000041F82200DDE90210401C02F005FA07461E
:1005100002F0A0FB0399481E029902F021FB38BBB0
:100520000398401E00EB8000864901EB8000029991
:1005300050F82100401CD8B9039800EB8000814995
:1005400001EB8000029950F82100401C0399491EDC
:1005500001EB81017B4A02EB8101029A41F8220002
:100560000399481E029902F0D7F9074602F072FB80
:100570000299491C039802F0F3FA38BB039800EB88
:100580008000704901EB80010298401C51F8200066
:10059000401CD8B9039800EB80006A4901EB800049
:1005A000029950F82100401C039901EB8101654A32
:1005B00002EB81020299491C42F821000299491C70
:1005C000039802F0A9F9074602F044FB0298411E85
:1005D000039802F0C5FA38BB039800EB8000594934
:1005E00001EB80010298401E51F82000401CD8B950
:1005F000039800EB8000534901EB8000029950F80A
:100600002100401C039901EB81014E4A02EB81025B
:100610000299491E42F821000298411E039802F0F7
:100620007BF9074602F016FB02F0E2F900283FF4DE
:100630003AAF012002AB03AA2946CDE9006020466B
:1006400002F04AFADDE9021002F08AFA90B9039842
:1006500000EB80003B4901EB8000029950F821102B
:1006600004EB8400374A02EB800050F82500401E5E
:1006700081422CD0002727E0B74200D123E001209F
:1006800002AB03AA2946CDE90070204602F024FA05
:10069000DDE9021002F064FAA0B9039800EB8000D3
:1006A000284901EB8000029950F8211004EB8400E6
:1006B000244A02EB800050F82500401E814201D1FF
:1006C0003E4603E000BF7F1C042FD5DB00BF11E0D6
:1006D00004EB84001C4901EB800040F82560039C7A
:1006E000029D012002AB03AACDE90060DDE9021002
:1006F00002F0F2F9DDE9021002F032FA90B9039843
:1007000000EB80000F4901EB8000029950F82110A6
:1007100004EB84000B4A02EB800050F82500401ED9
:100720008142D5D02946204602F01AFA38B9701C09
:1007300004EB8401044A02EB810141F82500BDE885
:10074000FF830000200300208002002010B550210C
:100750000448FFF7D6FD4FF0FF3250210248FFF763
:10076000C8FD10BDE00100203002002010B501F0EE
:10077000BDFA01F053F800F05FF800F00BF800F05C
:10078000BDFD00F0DFFF01F01DF8FFF7DFFF01F016
:10079000F9FA10BD00B58BB00121402001F0D2FA6A
:1007A0000121802001F0BEFA092206211F4800F035
:1007B00099FF4020099002208DF8280000208DF834
:1007C0002A0003208DF8290009A9184800F042FFEB
:1007D0005320ADF818000020ADF81A0040F2572061
:1007E00007900020ADF8200006A9114801F092FE04
:1007F000002003906020ADF804000120ADF8060051
:100800000020ADF8100001A9094801F0D9FD082128
:10081000074801F013FE0121054801F0B9FD01214F
:10082000034801F0C1FD0BB000BD0000001C0240F8
:100830000018004000BFFEE710B500F003F800F01C
:1008400035F910BD00B58BB00121082001F06AFA1E
:100850000121480601F076FA092200213E4800F005
:1008600041FF092201213C4800F03CFF0320099090
:1008700002208DF8280003208DF8290000208DF833
:100880002A0009A9344800F0E5FE14208DF8200064
:1008900002208DF8210000208DF8220001208DF823
:1008A000230008A801F09AF913208DF820000220F7
:1008B0008DF8210000208DF8220001208DF8230002
:1008C00008A801F08BF9254800F03AFA05A800F0D5
:1008D00072FC0320ADF8140000208DF816008DF88E
:1008E000170008208DF8180003208DF8190000204B
:1008F0008DF81A008DF81B008DF81C008DF81D0076
:100900008DF81E0001208DF81F0005A9134800F086
:1009100050FB0020ADF80400ADF80600ADF808006B
:10092000ADF80A00ADF80C008DF80E008DF80F0040
:1009300001208DF810008DF8110001A800F01CFABC
:1009400001220221054800F02BFB01221146034839
:1009500000F026FB0BB000BD000C0240006400401C
:1009600000B585B002211C4800F08AFA88B36A46B7
:100970000021194800F0A7FB9DF8080028BB9DF84E
:10098000090010BB9DF80A0008281ED13220134927
:1009900008600098A0F2012030B1012805D002289B
:1009A00004D003280FD102E000BF00BF00BF0099B0
:1009B000A1F2012101EBC101094A02EB8100694664
:1009C00000F096F900E000BF00BF0221024800F0ED
:1009D0003BF905B000BD0000006400401400002099
:1009E0004800002000B585B000208DF808008DF883
:1009F000090008208DF80A00800100901E488089B7
:100A0000000A8DF80B001C48017B8DF80C10008E3D
:100A1000010A8DF80D10184890F830108DF80E105E
:100A2000B0F85400010A8DF80F10134890F85410D4
:100A30008DF81010B0F87800010A8DF811100E48EA
:100A400090F878108DF8121000200C4908700C48AE
:100A50000068002803DD69460A4800F0BCFB04E09A
:100A600007480068002800DC03E0044800780028FC
:100A7000F6D000BF05B000BD4800002010000020E7
:100A8000140000200064004010B50121054800F06A
:100A9000F7F930B10120044908700121014800F044
:100AA000D3F810BD006400401000002000B58BB0EA
:100AB0000121022001F036F90121480601F042F936
:100AC0000121880601F03EF909220C21404800F07E
:100AD00009FE09220D213E4800F004FE4FF440506B
:100AE000099002208DF8280003208DF829000020AD
:100AF0008DF82A0009A9364800F0ACFD40208DF899
:100B0000200002208DF8210000208DF82200012015
:100B10008DF8230008A801F061F83F208DF820002F
:100B200002208DF8210000208DF8220001208DF890
:100B3000230008A801F052F8264800F001F905A8A2
:100B400000F039FB0320ADF8140000208DF81600EA
:100B50008DF8170008208DF8180003208DF8190073
:100B600000208DF81A008DF81B008DF81C008DF800
:100B70001D008DF81E0001208DF81F0005A91548E5
:100B800000F017FA0020ADF80400ADF80600ADF84B
:100B90000800ADF80A00ADF80C000E208DF80E002C
:100BA00000208DF80F0001208DF810008DF8110045
:100BB00001A800F0E1F801220221064800F0F0F956
:100BC00001221146034800F0EBF90BB000BD000014
:100BD000000402400068004000B585B002210F48C3
:100BE00000F04EF9C0B16A4600210C4800F06BFAE3
:100BF0009DF8080060B99DF8090048B99DF80A0001
:100C0000082805D132200649086000BF00BF00BF98
:100C10000221024800F018F805B000BD006800404D
:100C20001800002010B50121054800F029F930B165
:100C30000120044908700121014800F005F810BDA9
:100C40000068004011000020B1F5007F3AD00FDCB1
:100C5000202928D006DC01291CD004291DD0082910
:100C600040D11DE0402921D0B1F5807F3AD126E066
:100C7000B1F5004F31D006DCB1F5806F25D0B1F56C
:100C8000006F2FD124E0B1F5803F12D0B1F5003FC5
:100C900028D111E0154A826025E00822C26022E0D6
:100CA0001022C2601FE0082202611CE010220261D3
:100CB00019E00822426016E01022426013E004228C
:100CC000426010E0042242600DE0042242600AE02B
:100CD000002282610422426005E000228261042237
:100CE000426000E000BF00BF70470000010101004A
:100CF0000A7BCB7A42EA032212B242818B7B4A7B87
:100D000043EA022212B202800B7CCA7B43EA02222F
:100D100012B282804A7CC280028972B1B0F90A2084
:100D2000B0F908309A4205DA428902F5005212B24F
:100D3000428004E04289428001E04289428070475B
:100D400010B504460B48844209D10121480601F040
:100D500009F800214FF0007001F004F808E00121CB
:100D6000880600F0FFFF00214FF0806000F0FAFFDE
:100D700010BD00000064004010B50021837A0122FC
:100D800002FA03F13D4A126842F001023B4B1A603D
:100D90003A4A1C3212688A43384B1C331A60027B71
:100DA000CAB9364A0C3212688A43344B0C331A6083
:100DB0004288C38842EA0343304A4032847A42F888
:100DC00034300288838842EA03432C4A4032847AD2
:100DD00002EBC4025360027B012A19D1274A0C326C
:100DE00012680A43254B0C331A604288038842EA92
:100DF0000343224A4032847A42F83430C2888388DE
:100E000042EA03431D4A4032847A02EBC402536033
:100E1000C27A3AB9194A121D12688A43174B1B1D30
:100E20001A6006E0154A121D12680A43134B1B1D77
:100E30001A60028932B9114A143212688A430F4B80
:100E400014331A600289012A06D10C4A143212683E
:100E50000A430A4B14331A60427B012A06D1074A1F
:100E60001C3212680A43054B1C331A60034A12688D
:100E700022F00102014B1A6010BD00000066004024
:100E800070B504460D46002660692840002871D0E0
:100E9000B5F5807F5CD010DC082D35D006DC012D47
:100EA00020D0022D24D0042D72D127E0102D31D076
:100EB000202D35D0402D6BD138E0B5F5004F60D0F6
:100EC00009DCB5F5007F49D0B5F5806F4CD0B5F59C
:100ED000006F5DD14FE0B5F5803F2DD0B5F5003FF7
:100EE00056D12FE0A0682D4900F05EFA064651E089
:100EF000E068032100F058FA06464BE0E06808215C
:100F000000F052FA064645E0E068102100F04CFA85
:100F100006463FE02069032100F046FA064639E024
:100F20002069082100F040FA064633E020691021CC
:100F300000F03AFA06462DE06068082100F034FA25
:100F4000064627E06068102100F02EFA064621E0F0
:100F5000A069012100F028FA06461BE0A0690221E1
:100F600000F022FA064615E0A069042100F01CFA00
:100F700006460FE00FE0A069702100F015FA064662
:100F800008E06068042100F00FFA064602E0FFE77F
:100F9000002600BF00E00026304670BD01010100C0
:100FA0001AB143690B43436102E043698B434361D8
:100FB000704730B5024600200023146824F0020474
:100FC0001460146844F00104146000E05B1C546871
:100FD00004F001041CB94FF6FF74A342F6D1546823
:100FE00004F001040CB900206CE08C79012C04D1D0
:100FF000146844F08004146003E0146824F0800452
:101000001460CC79012C04D1146844F040041460BD
:1010100003E0146824F0400414600C7A012C04D11D
:10102000146844F02004146003E0146824F02004E1
:1010300014604C7A012C04D1146844F0100414603C
:1010400003E0146824F0100414608C7A012C04D19D
:10105000146844F00804146003E0146824F00804E1
:101060001460CC7A012C04D1146844F00404146098
:1010700003E0146824F0040414608C78A407CD788D
:1010800044EA05640D7944EA05444D7944EA05547F
:101090000D886D1E2C43D461146824F00104146083
:1010A000002300E05B1C546804F001041CB14FF6FF
:1010B000FF74A342F6D1546804F001040CB100207F
:1010C00000E0012030BD10B500F5D87303EB01132B
:1010D0001B6803F004031372137A53B900F5D87335
:1010E00003EB01131B6840F2FF7404EA53531360CF
:1010F00009E000F5D87303EB01131B686FF060443F
:1011000004EAD303536000F5D87303EB01131B68A3
:1011100003F00203537200F5D87303EB01135B680D
:1011200003F00F03937200F5D87303EB01135B68B0
:101130001B0AD37400F5D87303EB01139B68D372B9
:1011400000F5D87303EB01139B681C0A147300F5B8
:10115000D87303EB01139B681C0C547300F5D87310
:1011600003EB01139B681B0E937300F5D87303EB1D
:101170000113DB68D37300F5D87303EB0113DB684D
:101180001C0A147400F5D87303EB0113DB681C0C04
:10119000547400F5D87303EB0113DB681B0E9374D2
:1011A00021B9C36843F02003C36003E0036943F03F
:1011B0002003036110BD00218171C1710172417270
:1011C0008172C1728170C17003210171022141716C
:1011D00001210180704710B502460020936803F09A
:1011E0008063B3F1806F00D110E0936803F0006377
:1011F000B3F1006F01D1012008E0936803F0805340
:10120000B3F1805F01D1022000E00420042874D0F3
:1012100002F5C07303EB00131B6803F0010402F531
:10122000C07303EB00131C600B7A7BB94B7A0C88FC
:1012300043EA445302F5C07404EB001424682343CA
:1012400002F5C07404EB0014236010E00B7A4C68C4
:1012500043EAC4034C7A234302F5C07404EB001440
:101260002468234302F5C07404EB001423608B7AD6
:1012700003F00F038B7202F5C07303EB00135B687E
:1012800023F00F0402F5C07303EB00135C6002F55A
:10129000C07303EB00135B688C7A234302F5C074C0
:1012A00004EB001463608B7B1C064B7B44EA034415
:1012B0000B7B44EA0323CC7A234302F5C07404EB8E
:1012C0000014A3608B7C1C064B7C44EA03440B7C1B
:1012D00044EA0323CC7B234302F5C07404EB0014DF
:1012E000E36002F5C07303EB00131B6843F00104D5
:1012F00002F5C07303EB00131C6010BD10B512485B
:1013000090ED000A114880ED000A114890ED000AA6
:101310000E4880ED010A0F4890ED000A0B4880ED61
:10132000020A142201461430FEF7B1FF14220749C5
:1013300001F12800FEF7ABFF1422044901F13C0043
:10134000FEF7A5FF10BD00001C00002038010020A2
:10135000200000202400002010B500240FE000230E
:101360001A46194618469FED0D2B9FED0C1B9FED5D
:101370000B0B00F011FD052001F0F8FA641C642C41
:10138000EDDB002007498881002106480186A0F88E
:101390005410A0F87810FFF725FB10BD00000000E6
:1013A00000000000480000200246002002EA01037D
:1013B0000BB1012000E00020704721B1026842F02B
:1013C0000102026003E0026822F00102026070473D
:1013D0000146486880B27047014600200A6802F45E
:1013E00000220AB1012000E00020704741607047F0
:1013F0000178427841EA0221C1F30A01A1F5806136
:10140000294A11804178C910827841EA4211C1F31A
:101410000A01A1F58061244A518081788911C2783E
:1014200041EA8201027941EA8221C1F30A01A1F570
:1014300080611D4A918001794910427941EAC211C7
:10144000C1F30A01A1F58061174AD180017C427C79
:1014500041EA0221C1F30A01A1F58061124A11811A
:1014600041790911890891724179C1F30111D17251
:101470008179C27941EA022109B20B4A9181017A4C
:10148000427A41EA02210AB207494A83027B81F883
:101490002820427B81F82920817BC27B41EA0222FD
:1014A00001494A8570470000FC0000207047000099
:1014B0002DE9F04F2DED048B81B081460C464FF0A5
:1014C000000AD346002500260027A846B9F1000FE0
:1014D00009D0B9F1010F08D0B9F1020F08D0B9F164
:1014E000030F0AD106E0A24608E0C4F1000A05E0B5
:1014F000A34603E0C4F1000B00E000BF00BFB9F158
:10150000000F09D0B9F1010F07D0B9F1020F3BD09C
:10151000B9F1030F70D136E000BF2021474800F039
:1015200004F90021009001F033FB18B1A6F2DC565B
:10153000A8F2DC580421424800F0F7F8022100909C
:1015400001F026FB18B106F2DC5608F2DC584FF425
:1015500000613C4800F0E9F80321009001F018FB1D
:1015600018B1A5F2DC55A7F2DC570121334800F091
:10157000DCF80521009001F00BFB18B105F2DC55F9
:1015800007F2DC5739E000BF04212C4800F0CDF809
:101590000621009001F0FCFA18B1A7F5FA67A8F54A
:1015A000FA684021254800F0C0F80821009001F0B9
:1015B000EFFA18B107F2DC5708F2DC584FF480411B
:1015C000214800F0B2F80921009001F0E1FA18B1C9
:1015D000A5F2DC55A6F2DC564FF48061194800F004
:1015E000A4F80B21009001F0D3FA18B105F5FA65C3
:1015F00006F5FA6601E0FFE700BF00BF584601F0BC
:101600009AFE41EC180B504601F095FE41EC190B87
:1016100043463A46314628469FED0C2BB0EE481A19
:10162000F0EE681AB0EE490AF0EE690A00F0B4FB79
:1016300001B0BDEC048BBDE8F08F0000002002403B
:1016400000000240001C0240000C024000000000AC
:1016500000000000F0B50A4600210023002400BF6E
:101660003DE0012505FA01F3156805EA03049C42F3
:1016700034D105684F000326BE40B5430560157997
:101680004E00B5400668354305601579012D02D03E
:101690001579022D16D185684F000326BE40B5434B
:1016A000856055794E00B54086683543856045684C
:1016B00001268E40B5434560456896798E40B6B2A6
:1016C00035434560C5684F000326BE40B543C5603D
:1016D000D5794E00B540C6683543C560491C102910
:1016E000BFD3F0BDF0B5002300244D07ED0E02FA84
:1016F00005F3CE1000F1200555F826504E07F70EE1
:101700000F26BE40B543CF1000F1200646F8275003
:10171000CE1000F1200555F8265045EA0304CE10FE
:1017200000F1200545F82640F0BD0246002013696F
:101730000B400BB1012000E000207047418370474F
:10174000018370471CB50121084600F0EBFA012126
:10175000082000F0E7FA0121802000F0E3FA0121DF
:10176000080200F0DFFA00208DF8040002208DF856
:10177000070003208DF805000C20009069460C48F6
:10178000FFF768FF4FF44040009069460948FFF7B3
:1017900061FF4FF4E050009069460748FFF75AFF99
:1017A000E520009069460548FFF754FF1CBD000086
:1017B00000000240000C0240001C024000200240D9
:1017C00000BFFEE71CB50121080200F0ABFA0121C1
:1017D000042000F0A7FA00208DF8040001208DF805
:1017E000070003208DF80500012000906946084895
:1017F000FFF730FF4FF44050009069460548FFF76F
:1018000029FF0220009069460348FFF723FF1CBD13
:1018100000000240000C0240000402401CB50121FF
:10182000202000F07FFA0121102000F07BFA4FF415
:101830008040009001208DF8040000208DF8060003
:1018400003208DF8050069460E48FFF703FF4FF4AB
:101850000060009001208DF8040000208DF8060043
:1018600003208DF8050069460748FFF7F3FE4FF4A3
:1018700080410448FFF762FF4FF400610248FFF720
:101880005DFF1CBD001402400010024000BFFEE7D7
:1018900088B0FFF761FD002608E080218148FFF74E
:1018A00044FF0746072101F073F9761C0A2EF4DB8A
:1018B00000260FE000231A46194618469FED7A2BA2
:1018C0009FED791B9FED780B00F066FA052001F083
:1018D0004DF8761C40F6B8308642EBDB802171482B
:1018E000FFF723FF0646072101F052F958B1072000
:1018F0006F49086000206F4908606F490860042044
:101900006E4908600AE0002069490860694908607A
:101910000720694908600420684908606448006835
:10192000079064480068069061480468614805684B
:1019300000200590B4E00798A04279D10698A8420B
:1019400076D15B480068844214D15A4800688542C9
:1019500010D1FFF701FD4FF4FA7001F007F84FF4D2
:101960001B614FF0804000F0D2FD5348046853489B
:1019700005685DE000260FE000231A461946184668
:101980009FED492B9FED481B9FED4D0B00F004FA96
:10199000052000F0EBFF761CB6F52F7FECDBFFF7A0
:1019A000DBFC40F2B271480700F0B1FD00260FE009
:1019B00000231A46194618469FED3B2B9FED3A1B14
:1019C0009FED3F0B00F0E8F9052000F0CFFF761CFB
:1019D000AA2EEDDBFFF7C0FC4FF4FA6000F0C6FF63
:1019E0004FF41B614FF0804000F091FD4FF4FA601E
:1019F00000F0BCFF00260FE000231A4619461846E7
:101A00009FED292B9FED281B9FED2F0B00F0C4F9B4
:101A1000052000F0ABFF761CB6F52F7FECDB40F223
:101A2000B271480700F073FD214804682148056839
:101A3000DDE9061001F024F904A805A92B46224689
:101A4000CDE90010DDE9061000F0E0FFDDE904104B
:101A500006AB07AACDE90001DDE9061001F03CF86C
:101A60001548006884420ED11448006885420AD1A6
:101A700006988DE8310041F2A860079BDDE904215A
:101A800000F026F809E006988DE8310041F6902034
:101A9000079BDDE9042100F01BF8052000F066FF3C
:101AA00049E70000002002400000000000000000A4
:101AB0000000002004000020080000200C0000208E
:101AC0000000000000408F400000000000408FC078
:101AD0002DE9FF5F06460F4614469846DDE90EB92C
:101AE000DDF840A04FF4FA6003900025601B5B46D0
:101AF000424621468DE80106384600F04DFE0020A2
:101B0000344908600BE033480068401C31490860E4
:101B100038460399FFF7CCFC052000F027FF384634
:101B2000FEF76EFC0028EED12A4800689628EADB12
:101B30004CE03846FEF764FCB0B3681C0546A04292
:101B400002D1FFF709FC42E0601B5B46424621469A
:101B50008DE80106384600F01FFE1DB940F6A6606C
:101B6000039007E0601EA84203D140F6A6600390F0
:101B700000E003960020174908600BE01548006854
:101B8000401C1449086038460399FFF791FC052072
:101B900000F0ECFE3846FEF733FC0028EED10D488D
:101BA0000068642812DAE9E7FFE71DB940F6A6608D
:101BB000039007E0601EA84203D140F6A6600390A0
:101BC00000E0039638460399FFF772FCB1E700BFC7
:101BD000BDE8FF9F280000207047000070B500217D
:101BE00000230F22C4781CB3174C246804F4E0646B
:101BF000C4F5E064C4F30721C1F10404E3B20A416F
:101C000044789C40E1B28478144021430C07210EB3
:101C10000E4C05786155047804F01F050124AC4092
:101C200005786D11AD0005F1E025C5F8004109E02A
:101C3000047804F01F050124AC40054D06787611A8
:101C400045F8264070BD00000CED00E000E400E027
:101C500080E100E002490143024A11607047000040
:101C60000000FA050CED00E010B50246D2ED010AC5
:101C700013690B4400EE103AB8EEC00A60EE800A19
:101C8000136192ED001A00EE101AF8EEC01AB0EED1
:101C9000600A01EE210A92ED021AD368CB1A00EE17
:101CA000903AF8EEE00A01EE200ABDEEC00A10EE0E
:101CB000100AD1600B4C1369A34201DD2346136166
:101CC000084C64421369A34201DA2346136147F2C8
:101CD0003053984200DD1846034B984200DA18460C
:101CE00010BD0000A0860100D08AFFFF1CB50121B5
:101CF000802000F017F83C20009001208DF80400AF
:101D000000208DF8060003208DF805006946044880
:101D1000FFF7A0FC3C210248FFF712FD1CBD0000AC
:101D2000001C024029B1064A12680243044B1A60A3
:101D300004E0034A12688243014B1A6070470000B6
:101D40003038024029B1064A12680243044B1A6037
:101D500004E0034A12688243014B1A607047000096
:101D60004038024029B1064A12680243044B1A6007
:101D700004E0034A12688243014B1A607047000076
:101D80002038024010B500F0B3FA4FF41B614FF059
:101D9000804000F0BCFB10BD2DE9F05F2DED0E8BF7
:101DA000B0EE408AF0EE608AB0EE419AF0EE619AB1
:101DB000B0EE42AAF0EE62AA04460D4616461F4651
:101DC000A046A946B246BB46404601F0B4FA41ECF3
:101DD0001D0B53EC182B01F019FB41EC1C0B01F00F
:101DE0007BFA8046484601F0A6FA41EC1D0B53EC05
:101DF000182B01F00BFB41EC1C0B01F06DFA814636
:101E0000504601F098FA41EC1D0B53EC182B00F0F2
:101E1000BBFF41EC1C0B01F05FFA8246584601F013
:101E20008AFA41EC1D0B53EC182B00F0ADFF41EC8E
:101E30001C0B01F051FA8346404601F07CFA41EC5C
:101E40001D0B53EC192B00F09FFF41EC1C0B01F014
:101E500043FA8046484601F06EFA41EC1D0B53EC04
:101E6000192B01F0D3FA41EC1C0B01F035FA814635
:101E7000504601F060FA41EC1D0B53EC192B00F0B9
:101E800083FF41EC1C0B01F027FA8246584601F013
:101E900052FA41EC1D0B53EC192B01F0B7FA41EC4F
:101EA0001C0B01F019FA8346404601F044FA41EC5C
:101EB0001D0B53EC1A2B00F067FF41EC1C0B01F0DB
:101EC0000BFA8046484601F036FA41EC1D0B53EC04
:101ED0001A2B00F059FF41EC1C0B01F0FDF9814673
:101EE000504601F028FA41EC1D0B53EC1A2B00F080
:101EF0004BFF41EC1C0B01F0EFF98246584601F014
:101F00001AFA41EC1D0B53EC1A2B00F03DFF41EC8B
:101F10001C0B01F0E1F983469FED830BB0EE40BA54
:101F2000F0EE60BA404601F006FA41EC1E0B9FED60
:101F3000800B53EC102B01F077F841EC1D0BB0EE49
:101F40004D0AF0EE6D0A00F0E0FBB0EE40CAF0EE94
:101F500060CAB0EE4C1AF0EE6C1AB0EE4B0AF0EE1E
:101F60006B0A00F0DCFBB0EE40BAF0EE60BA484617
:101F700001F0E1F941EC1E0B9FED6D0B53EC102BC2
:101F800001F052F841EC1D0BB0EE4D0AF0EE6D0A77
:101F900000F0BBFBB0EE40CAF0EE60CAB0EE4C1AE7
:101FA000F0EE6C1AB0EE4B0AF0EE6B0A00F0B7FBE5
:101FB000B0EE40BAF0EE60BA504601F0BCF941EC28
:101FC0001E0B9FED5B0B53EC102B01F02DF841EC39
:101FD0001D0BB0EE4D0AF0EE6D0A00F096FBB0EE70
:101FE00040CAF0EE60CAB0EE4C1AF0EE6C1AB0EED9
:101FF0004B0AF0EE6B0A00F092FBB0EE40BAF0EE46
:1020000060BA584601F097F941EC1E0B9FED480B62
:1020100053EC102B01F008F841EC1D0BB0EE4D0A0B
:10202000F0EE6D0A00F071FBB0EE40CAF0EE60CA4F
:10203000B0EE4C1AF0EE6C1AB0EE4B0AF0EE6B0AF2
:1020400000F06DFBB0EE40BAF0EE60BA404601F031
:1020500072F941EC1D0B53EC1B2B00F0E5FF41EC3A
:102060001C0B01F039F98046484601F064F941EC57
:102070001D0B53EC1B2B00F0D7FF41EC1C0B01F0A8
:102080002BF98146504601F056F941EC1D0B53ECFB
:102090001B2B00F0C9FF41EC1C0B01F01DF982461F
:1020A000584601F048F941EC1D0B53EC1B2B00F096
:1020B000BBFF41EC1C0B01F00FF983461E48B0F941
:1020C0000000A8EB00011D48FFF7CEFD00B21A4941
:1020D00088810846B0F92400A9EB000117481430A4
:1020E000FFF7C2FD01B214480186B0F94800AAEB1F
:1020F000000112482830FFF7B7FD01B20E48A0F8E2
:102100005410B0F96C00ABEB00010C483C30FFF709
:10211000ABFD01B20848A0F87810FEF763FCBDECF7
:102120000E8BBDE8F09F0000000000000000F03FB3
:10213000000000000088C340480000203801002053
:102140000CB50020019000904148006840F48030B8
:102150003F49086000BF3E48006800F4003000902E
:102160000198401C0190009818B90198B0F5A04F53
:10217000F1D13748006800F4003010B10120009020
:1021800001E0002000900098012860D130484030E4
:10219000006840F080502E49403108602D480068AA
:1021A00040F440402B49086029480830006828491D
:1021B000083108600846006840F40040086008469E
:1021C000006840F4A05008602348091F0860081FF9
:1021D000006840F08070091F086000BF1C4800685C
:1021E00000F000700028F9D01A48006840F48030F0
:1021F0001849086000BF1748406800F48030002884
:10220000F9D01448006840F400301249086000BF5B
:102210001048406800F400300028F9D040F2057002
:102220000E4908600A480830006820F00300084999
:10223000083108600846006840F00200086000BFEE
:1022400003480830006800F00C000828F8D10CBDE5
:1022500000380240007000400C544007003C02402F
:10226000042808D14FF0E021096941F004014FF042
:10227000E022116107E04FF0E021096921F004013B
:102280004FF0E0221161704710B51548006840F426
:102290007000134908601348006840F001001149BC
:1022A000086000200F49083108600E4800680E4998
:1022B00008400C4908600D48091D0860081F0068A7
:1022C00020F48020091F0860002006490C310860B6
:1022D000FFF736FF4FF0006001498039086010BDFC
:1022E00088ED00E000380240FFFFF6FE10300024C9
:1022F00000B58BB001210846FFF724FD01210846F7
:10230000FFF710FD012211462048FFF7EBF90220EC
:1023100009908DF8280000208DF82A0003208DF800
:10232000290009A91948FFF795F95320ADF81800BD
:102330000020ADF81A0044F61F6007900020ADF8A9
:10234000200006A94FF0804000F0E4F840F6C410E9
:1023500003906020ADF804000120ADF806000020D5
:10236000ADF8100001A94FF0804000F071F808218D
:10237000C80600F0BFF80121880700F009F8012124
:10238000880700F011F80BB000BD0000000002400B
:1023900021B1028842F08002028004E002884FF6F8
:1023A0007F731A400280704721B1028842F0010217
:1023B000028004E002884FF6FE731A4002807047E4
:1023C00070B5002400220023058C4FF6FE763540C0
:1023D0000584028C8388048B4FF68F752C40B51EC4
:1023E0002C400D882C43751E2A408D892A434D8828
:1023F0002A43104DA84202D00F4DA84213D14FF6E8
:10240000F7752A40CD892A434FF6FB752A408D88FF
:102410002A434FF6FF652B404FF6FF552B400D8AA0
:102420002B434D8A2B43838004838D68456302844C
:1024300070BD000000000140000401400A46002178
:10244000018B4FF6F7731940114301837047000069
:1024500070B5002400220023058C4FF6EF7635403E
:102460000584028C8388048B48F6FF752C404FF658
:10247000FF452C400D884FF6FF7606EA05252C43D4
:102480004FF6DF752A408D8906EA05152A434D88E7
:1024900006EA05152A43154DA84202D0144DA8425C
:1024A0001DD14FF67F752A40CD894FF6FF7606EA9B
:1024B00005152A434FF6BF752A408D8806EA051593
:1024C0002A434FF6FF352B404FF2FF752B400D8A04
:1024D00006EA85052B434D8A06EA85052B43838052
:1024E00004838D688563028470BD00000000014094
:1024F000000401400A460021018B4FF2FF7319408E
:102500004FF6FF7303EA0223194301837047816387
:102510007047000000220288184B98420ED0184BDA
:1025200098420BD0B0F1804F08D0164B984205D09E
:10253000154B984202D0154B984204D14FF68F7339
:102540001A404B881A43124B984207D0114B9842BD
:1025500004D04FF6FF431A400B891A4302804B68A0
:10256000C3620B880385054B984202D0044B984206
:1025700001D18B7A038601238382704700000140DA
:10258000000401400004004000080040000C00402E
:10259000001000400014004010B540F224411D48D6
:1025A00000F082F8002834D000241A4800F0A6F881
:1025B0001948FEF711FFA8B900211748FEF7FDFEE4
:1025C0001548FEF705FF044612211348FEF70EFFDB
:1025D00001211148FEF7F1FE122C19D10F48FEF728
:1025E00007FF15E000210C48FEF7E7FE0A48FEF75A
:1025F000EFFE044612210848FEF7F8FE01210648C6
:10260000FEF7DBFE122C03D104481238FEF7F0FE71
:1026100000BF10BD0010014040640240EA000020ED
:1026200010B540F225511D4800F03EF810B31B488C
:1026300000F064F8C4B21A48008800F40040C8B939
:102640001748008800F4804060B10A2C03D00020B5
:102650001349088020E01248008840F400401049E7
:10266000088019E00D2C06D10D48008840F4804008
:102670000B49088010E00A480088C0F30D000949A2
:102680000C5407480088401C05490880084600880B
:10269000C72801DD0020088010BD000000140140A3
:1026A000440000207404002070B50246002400237A
:1026B0000025002040F66A16B14200D100BFC1F3E8
:1026C000421501F01F03012606FA03F3012D02D182
:1026D0009689334006E0022D02D1168A334001E08C
:1026E000968A33400C12012606FA04F41688344008
:1026F00013B10CB1012000E0002070BD01468888B4
:10270000C0F30800704700BFFEE72DED020B0198F3
:1027100020F0004001909DED000B02B0704700B525
:102720002DED048BB0EE418AF0EE618AB0EE409A56
:10273000F0EE609A83B053EC182B51EC190B00F0BB
:10274000FCFB00F07040B0F1005F1AD018EE101AD8
:1027500018EE900A8DED008B002918BF0121084367
:1027600020F00040C0F17F6000F1E040C00F01BFE9
:10277000B0EE480AF0EE680A03B0BDEC048B08BF67
:1027800000BDB0EE490A03B0F0EE690ABDEC048B5F
:1027900000BD00BF704700002DE9FE4F05468A4688
:1027A000904699460CACD0CC35B1012D37D0022DD6
:1027B0005BD0032D7BD17EE0B8F1000F06D1B9F1DB
:1027C000040F03D1012C01D1BDE8FE8FB8F1070F32
:1027D00005D1B9F1040F02D1012C00D1F4E7012198
:1027E0004A48FEF7A2FF08B9012000E00020834616
:1027F000002100F08FF988B10EE0FEF7ADFD4FF437
:10280000FA7000F0B3F84B464246514600208DE87E
:10281000D000FFF7C1FF00E0EFE700BF00BF012CD1
:1028200001D0012D00D0CFE74FF400513848FEF71A
:102830007CFF08B9012000E000208346012100F060
:1028400069F988B10EE0FEF787FD4FF4FA7000F0E9
:102850008DF84B464246514601208DE8D000FFF7E7
:102860009BFF00E0EFE700BF00BF012C01D0022D6D
:1028700000D0A9E702212748FEF757FF08B9012039
:1028800000E000208346022100F044F990B10FE0FF
:10289000FEF762FD4FF4FA7000F068F84B464246CE
:1028A000514602208DE8D000FFF776FF01E028E0D6
:1028B000EEE700BF00BF012C01D0032D00D083E75D
:1028C0004FF480511248FEF730FF08B9012000E0B4
:1028D00000208346032100F01DF988B10EE0FEF7C9
:1028E0003BFD4FF4FA7000F041F84B46424651462A
:1028F00003208DE8D000FFF74FFF00E0EFE700BFB7
:1029000000BF00BF00BF00BF5EE700000000024044
:10291000000C024000040240024602EB8200084420
:10292000704710B5052390FBF3F30B60052390FB74
:10293000F3F403FB1403136010BD000010B504464C
:102940000420FFF78DFC07480470007800EB40017D
:10295000C1EBC0104FF6FF7101EAC00002490880C8
:1029600010BD00003C0000203E00002070B5044671
:102970004FF4077094FBF0F0C6B24FF4077094FB6D
:10298000F0F100FB114085B205E04FF4077000F054
:1029900009F8701EC6B2002EF7D115B1284600F016
:1029A00001F870BD0146114A12884A434FF0E023F6
:1029B0005A6100229A611A46126942F001021A61B4
:1029C00000BF4FF0E022106900F001021AB100F4DC
:1029D0008032002AF5D04FF0E022126922F0010285
:1029E0004FF0E0231A6100229A6170473E000020F8
:1029F0000448006804490968884201D101207047F1
:102A00000020FCE73400002038000020FFB583B030
:102A100016461F46DDE90C4501212448A0F84E105A
:102A2000018100202249086022490860421EA0213D
:102A30002148FDF75EFC20683B4632460090DDE908
:102A40000301FDF719FD00202860039800EB8000CA
:102A50001A4901EB8000049950F8210020600CE035
:102A60000121206804AB03AACDE90001DDE90301DF
:102A700000F032F82868401C2860039800EB8000C2
:102A80000F4901EB4000049930F8110058B1039848
:102A900000EB8000094901EB8000049950F8210007
:102AA00021688842DCD007B0F0BD00003002002071
:102AB0003800002034000020200300208002002085
:102AC000E001002002480349096850F821007047DE
:102AD000C00300203400002070B5DDE9045435B196
:102AE000012D08D0022D0AD0032D10D10BE010606B
:102AF0000E191E600CE010600E1B1E6008E01960CD
:102B0000061B166004E019600619166000E000BF9D
:102B100000BF70BD0246104830F91100904208D144
:102B20000E4850F8210098B100200C4B43F82100CA
:102B30000EE00A4850F82100401C084B43F82100E1
:102B4000002805DD002043F82100034820F811206B
:102B5000014830F9110070472C000020D0010020FE
:102B60000246002A0DDB082A0BDA002909DB0529B9
:102B700007DA02EB8200054B03EB400030F811004E
:102B800008B9012070470020FCE700003002002057
:102B90000246104830F91100904208D10E4850F812
:102BA000210098B100200C4B43F821000EE00A48A8
:102BB00050F82100401C084B43F82100022805DD95
:102BC000002043F82100034820F81120014830F983
:102BD0001100704788010020A001002010B54FF4BB
:102BE0004070FFF737F8A820FFF7A8FEFDF7BEFDFD
:102BF0004FF400511048FEF798FD08B9012000E09D
:102C0000002004460121FFF785FF90B13220FFF735
:102C1000ADFE4FF400510848FEF787FD08B90120CA
:102C200000E0002004460121FFF774FF08B1FEF721
:102C30002FFE002010BD0000000C02400448006878
:102C4000401C034908602D2801D10020086070470E
:102C500034000020084909682D2902D10021064AC4
:102C6000116005490A680968491C034B196003494A
:102C700041F822007047000038000020C003002007
:102C800070B504460D46012004EB8401394A02EB7D
:102C9000410121F8150001213748FEF746FD08B92A
:102CA000012000E0002006460021FFF733FF68B155
:102CB000691C2046FFF754FF40B9002104EB840053
:102CC0002E4A02EB4002681C22F8101002212C4808
:102CD000FEF72BFD08B9012000E000200646022186
:102CE000FFF718FF68B1601E2946FFF739FF40B9AA
:102CF0000021601E00EB8000204A02EB400020F81B
:102D000015104FF400511F48FEF70FFD08B90120C0
:102D100000E0002006460121FFF7FCFE68B1691EB5
:102D20002046FFF71DFF40B9002104EB8400134A41
:102D300002EB4002681E22F810104FF48051114837
:102D4000FEF7F3FC08B9012000E00020064603214D
:102D5000FFF7E0FE68B12946601CFFF701FF40B9AC
:102D60000021601C00EB8000044A02EB400020F8C8
:102D7000151070BDE001002000000240300200206C
:102D800000040240000C024010B591EA030F48BF56
:102D900083F0004300F14283841A71EB030C05D2E7
:102DA000121943EB0C03001B61EB0C01DFF824E16B
:102DB0004FEA1154A4EB135C1EEA430F18BF9EEABE
:102DC000445F73D023EA0E03DCF1200E21EA0451A4
:102DD00043F4801332D322FA0CFE10EB0E0023FAD8
:102DE0000CFE41EB0E01CCF1200E03FA0EFE10EBAF
:102DF0000E0051F10001B1F5801FCCF1200E32D24E
:102E000001EB045112FA0EF2BDE8104058BF7047B2
:102E1000401C38BF5FEA420218BF7047002814BF49
:102E200020F0010041F100014FEA410313F5001FBA
:102E300038BF7047A1F1C04100F0E2BA012A43EB6C
:102E40000302ACF1200CDCF11F0E32BF4FF0000E7C
:102E500023FA0CF310EB030041EB0451B4EB115FC8
:102E6000D0D0A1EB045101F5801149085FEA300090
:102E700001EB04510ED350F1000038BF12FA0EFEE0
:102E800008D1BDE81040C9E7401C38BF5FEA4202E4
:102E9000CAD1C3E7BDE810404FEA410313F5001F54
:102EA00038BF7047A1F1C04100F0AABA9EEA445F62
:102EB00008D011EA5E0FBDE8104004BF01F00041E8
:102EC00000207047BDE8104070B500F04BFA00BF1D
:102ED00064FBBE3E0000E0FF51EA030C17D41CF572
:102EE000801F58BFBCF5801F00F10680994218BFB3
:102EF000704708BF9042704707D711F5801F58BF31
:102F000013F5801F26D499427047894270471CF5FB
:102F1000801F08D5BCF5801FF7D58B4218BF7047BE
:102F200008BF824270474FF4001C1CEB410F38BFB2
:102F30001CEB430F0ED28B42704770B5FFF7CCFFEE
:102F4000EFF3008020F0104038BF40F0004080F3E5
:102F5000008870BDBDE8704070B500F003FA00BF96
:102F60000000000900F053B84FF0404010F1004F4E
:102F7000EFF30080704751EA030C17D41CF5801F53
:102F800058BFBCF5801F00F10680994218BF7047FA
:102F900008BF9042704707D711F5801F58BF13F53F
:102FA000801F26D499427047894270471CF5801FC4
:102FB00008D5BCF5801FF7D58B4218BF704708BFF6
:102FC000824270474FF4001C1CEB410F38BF1CEBD2
:102FD000430F0ED28B42704770B5FFF7CCFFEFF373
:102FE000008020F0104038BF40F0004080F300889F
:102FF00070BD00F0B7F900BF0000000900F007B88D
:103000004FF0404010F1004FEFF30080704749103F
:1030100058BFC1F140415B1058BFC3F140438B42E0
:10302000EFF30080704700002DE9C04130B4DFF8B5
:10303000A0C23CEA111418BF3CEA131400F0EC8063
:1030400081EA03051CEA111444EAD57418BF1CEA8E
:10305000131500F0C780A4EB05044FF0004545EAC6
:10306000C12145EAC32341EA505143EA525304F1D6
:103070007F74994204F500344FEAC0204FEAC2221F
:1030800008BF904200F09C804FEA13650FF2401693
:10309000765D4FEA134506FB05F7C7F1807706FB1F
:1030A00007F74FEAD737A7FB03687642C8F58038A1
:1030B000A7FB06CE38BFA8F1010807FB08E64FF0D2
:1030C000000EA6FB028CE6FB03CEDCF1000CCEF179
:1030D000004E38BFAEF1010EA6FB0C584FF00007B2
:1030E0004FF00005E6FB0E87A1FB08C6A0FB07CE4C
:1030F00016EB0E0645F10005E1FB076515F1E04E04
:103100007EBFA4F580345FEA46066D4116F1800764
:1031100045F100054FEA17274FEA066647EA0567BB
:10312000A6F1DE46B6F1805F4FEA15251FD9384675
:1031300024F0010C05EBC471BCF1FE6F01EB0C1126
:1031400002D8F0BCBDE8008124425CBF01F5801EBE
:103150009EEAC47F02D4F0BCBDE80081244238D48A
:10316000F0BCA1F1C041BDE8004100F049B94FEA0F
:10317000D22242EA43524FEAD323A7FB02864FEA08
:10318000D02040EA415007FB03661EEA0E0F4FEACB
:10319000D12105FB026658BFA6EB0056B6EB0056E0
:1031A0004FEA520E4EEAC37E18EB0E0E56EB530E4C
:1031B000BDD518EB02085E417F1C55F10005B6E74E
:1031C0004FF480154FF000074FF000064FF0000855
:1031D000ADE7F0BC4FF0000001F1C04101F000414B
:1031E000BDE8008111EA0C1F0CEA131500D00CE0B9
:1031F00013EA0C1F00F025804FF00000F0BC81EABC
:10320000030101F00041BDE80081F0BCBDE80041D0
:1032100081EA030100F0F4B8F0BCBDE8004170B5EC
:1032200000F0A0F8097EFC3E00F007B881EA030137
:103230004FF0000001F00041704781EA030100F007
:10324000DFB8F0BCBDE800414FF0000021497047F5
:10325000FFFDFBF9F7F5F4F2F0EEEDEBE9E8E6E45B
:10326000E3E1E0DEDDDBDAD8D7D5D4D3D1D0CFCDE2
:10327000CCCBCAC8C7C6C5C4C2C1C0BFBEBDBCBB1B
:10328000BAB9B8B7B6B5B4B3B2B1B0AFAEADACAB16
:10329000AAA9A8A8A7A6A5A4A3A3A2A1A09F9F9EF0
:1032A0009D9C9C9B9A9999989797969595949393A2
:1032B000929191908F8F8E8E8D8C8C8B8B8A898939
:1032C00088888787868585848483838282818180BC
:1032D0000000FF070000F87F4FEA41034FEA535315
:1032E000A3F58063D3F11E03C8BFD3F1210C0CDD1D
:1032F0004FF0004242EAC12242EA505232FA03FC45
:103300008CEAE17CACEBE1707047102BC4BF00206D
:10331000704703F5787CBCF1FF3F04D06FF00042AA
:1033200082EA2100704770B500F01CF849922480B1
:1033300000207047F2E710F0004248BF4042B0FA68
:1033400080F310FA03F10AD0C3F11D0303F5806383
:103350004FEA415002EB035202EBD12170474FF08C
:10336000000070470EF1020E2EF0030E5EF8046BA3
:10337000364205D4012A43EB030515F5001F12D888
:10338000012841EB010C1CF5001F0CD80ED14FEAAF
:10339000D17C15F5001F0CEB4C0C0CF1020C08BF96
:1033A0004CEBD37C04E04FF0080C01E04FEAD37CF7
:1033B0000CEB4C0526FA05F606F00706B6F1040CF0
:1033C00006D20EEB860CBDE870404CF0010C604755
:1033D000DFE80CF0090B02024FF000414FF0000053
:1033E000A1F5002170BD19461046012851EB0104DA
:1033F00018BFD4F5001484BF002001F0004170BD57
:103400000808A0F500114FEA3101704710B591EAA4
:10341000030F48BF83F000433FF5BEAC841A71EB45
:10342000030C07D212198CF0004C43EB0C03001B69
:1034300061EB0C01DFF8A4E14FEA1154A4EB135C3B
:103440001EEA430F18BF9EEA445F00F0B08023EAF3
:103450006E03524221EA0451C3EB6E0338BF5B1E78
:10346000DCF1200E25D322FA0CFE10EB0E0043FAFD
:103470000CFE41EB0E01CCF1200E03FA0EFE10EB18
:103480000E0051F10001CCF1200E29D412FA0EF2F7
:1034900001EB0451BDE8104058BF7047401C1CBFF1
:1034A000B2F1004F704700280CBF491C20F001000A
:1034B000704712EB020E43EB030218BF4FF0010EF0
:1034C0004EEA4202ACF1200CDCF11E0E54D943FA54
:1034D0000CFE10EB0E0051F1FF31CCF11E0ED5D5D4
:1034E0000EF1010E12FA0EFE404141EB010101EB1B
:1034F000445C5FEA5C5C10D910EBDE7001EB0451B8
:1035000038BFBEF1004FBDE8104018BF704700281B
:103510000CBF491C20F00100704730D24FEAD42C78
:1035200011F5001124F400641BD0B1FA81F20B3ABA
:10353000A41AA41ED2F12003914030FA03F31943D8
:10354000904001EBCC71002C01EB0451BDE8104020
:10355000A8BF704701F1C0414FF0000001F00041E9
:103560007047B0FA80F310FA03F100D110BDE41AED
:10357000173C4805C90AE4E701EB045110BD4910A6
:1035800001EB0451BDE810404FEA300002E04FF07B
:10359000000170474A0008BF0042F8D0B2F5001F92
:1035A00028BF704701F000414FF0000070479EEACD
:1035B000445F07D011EA5E0FBDE8104004BF002150
:1035C00000207047BDE8104070B5FFF7CBFE00BF8C
:1035D00040DFF63E83F00041104670470000E0FFF8
:1035E0004FF04070E1EE100A704700000C36000802
:1035F0000000002048000000E801000854360008E0
:1036000048000020580B00000402000800000000E1
:1036100000000000000000000000000000000000AA
:1036200000000000000000000000A04100000000B9
:103630000000204200000000000000000000000028
:10364000000000000000000000000000000000007A
:043650000000000076
:04000005080001AD41
:00000001FF
